:02000002D0002C
:1040000000400D0060720D00000006000C0005016C
:0840100004014E040000000051
:10401800D06C0D0009480A49884208B505D0094AFC
:10402800824202D0121A02F0BFFD0748074A002157
:10403800121A02F0C4FD014808BD00BFC0E2032007
:10404800D0710D0028E3032028E30320F0E70320C4
:1040580070B502F0A3FB074C074BE41AA40800252F
:104068001E46A54204D056F8253098470135F8E792
:1040780070BD00BFC8710D008C710D0000F09EB9B5
:1040880008B500F00FFABDE8084002F055BB01F092
:10409800B5B801F0BBB801F0B9B8000008B5034ADB
:1040A80000210C2001F00EF8FEE700BFAD4D0D0019
:1040B8000078B0FA80F04009704701230370704718
:1040C80003681847012A02D0022A02D004E00160DE
:1040D80002E00B6800B10360002070477FB54FF421
:1040E800807001F095FB04464FF4807001F090FB5E
:1040F80005464FF4807001F08BFBE9B2C2B2E0B222
:1041080000F04CFD144D286002F05AFA0A220446C9
:104118002968684601F04FFC0099204601F035FBFC
:10412800684601F0DDFB00242A680C48A6B2224448
:10413800314600F0E8FC2A68094822443146013437
:1041480000F0E1FC962CEFD1044800F00BFB04488A
:1041580000F008FB04B070BD5CE303207CE303209F
:1041680098E30320436913B183690C3018477047FB
:1041780013B500210446084600F0C4FD02A9002337
:10418800204641F8043D00F0D5FD019C0CB1012307
:1041980023710021012000F0B5FD2CB123682046D1
:1041A8009B6898470023237102B010BD10B50368BF
:1041B80004469B689847A368013BA3602BB9236812
:1041C8002046DB68BDE81040184710BD10B5064B07
:1041D80003600446806928B14368013B43600BB91A
:1041E800FFF7E4FF204610BD346F0D0038B50446D4
:1041F800054B44F8143B054602F00EF82046FFF73D
:10420800E5FF284638BD00BF4C700D0010B5836827
:10421800044613B1032201469847204610BD00000A
:1042280037B5134B036004468068C8B100256FF0AA
:1042380000438DE8280002212B462A4600F082FD23
:104248002946A06800F096FD237903F0FF0513B115
:1042580000F040FDF8E72946A06800F063FDA5607E
:1042680004F10C00FFF7D2FF204603B030BD00BFB9
:10427800EC6C0D0010B50446FFF7D2FF2046FFF79F
:1042880008FF204610BD00221146406800F05EBFBE
:1042980010B50446FFF79AFF2046FFF7FAFE2046BE
:1042A80010BD10B50446FFF7A1FF2046FFF7F1FE49
:1042B800204610BD002001F019BC000073B584B27F
:1042C8000D461B48214600F06EFCC0F307430A2B3D
:1042D80088BF05FB03F2C0F3072181BF4FF4807646
:1042E80092FBF6F29A1AD2B298BF00220A2988BF26
:1042F80005FB01F3C0B281BF4FF4807693FBF6F360
:10430800CB1ADBB298BF00230A2881BF05FB00F156
:104318004FF4807591FBF5F1401A8CBFC0B20020B4
:1043280000902146024800F0BFFB02B070BD00BFFC
:104338007CE303202DE9F04F85B006461E48039222
:104348000F4699469DF838809DF83CA000F0ABFCDC
:10435800194800F007FA00240025BAF1000F25D00B
:104368000A2001F055FA052820DC0135962DF4D1F4
:104378002546C9EB040BAB450BD0952D07D8039BFD
:10438800009332463B46A9B20B4800F08DFB013D35
:10439800F1E7094800F0E6F90134109800F056FFFB
:1043A800B4F5967FD8D105B0BDE8F08F41462846D0
:1043B800FFF784FFD9E700BF7CE30320F0B5364858
:1043C8000023194687B01A46406800F0C7FE3348F4
:1043D80001F02EFF02F0F4F84FF4165102F0E0F865
:1043E800002000F0F7FC0025044647F22F5600276E
:1043F800002000F0EFFC001B61EB05018F4208BFB5
:10440800864207D302F0DCF802F0CEF810B900F0CB
:104418008DFEEDE702F0D4F802F0C6F802F0D0F80D
:1044280004461D48FFF72FFF811C684600F0DAFF9D
:104438006946204601F0B3F902F0C2F8044616486E
:10444800FFF721FF00F11301684600F0CBFF694632
:10445800204601F0A4F902F0B3F804460E48FFF72D
:1044680012FF00F12401684600F0BCFF69462046AF
:1044780001F095F902F0A4F804460748FFF703FF96
:1044880000F15D01204601F080F96421044800F044
:10449800E4FB07B0F0BD00BF08E703202CE30320CE
:1044A8007CE3032030B5402191B001221E238DE822
:1044B8000E00344DFF2210460A231146FFF73AFF3B
:1044C800284601F044FB2C46002837D0284601F046
:1044D80029FD002854D0294605A801F0EDF9059BCF
:1044E800079A294909A801F0D9FA099C3CB1204644
:1044F80002F0E2FB21460246244801F0E3FD09A848
:1045080001F0EEF9079B062B14D105A909A803238E
:10451800002201F09BFA1E4909A801F084FA10B1A3
:10452800FFF7C8FE03E01B4909A801F07CFA09A8B7
:1045380001F0D6F905A801F0D3F921E0134909A83B
:1045480001F01EFF0A9B6B600B9BAB600C9BEB6042
:104558000D9B2B610E9B6B610F9DA3699D420CD037
:1045680015B16B6801336B60A06928B14368013BE2
:1045780043600BB9FFF71AFEA56109A8FFF726FEED
:1045880011B030BD60E30320F86C0D002CE303206C
:10459800076D0D000B6D0D00F0B589B000F022FC21
:1045A800344B354C354E364F00254FF6FF721D7093
:1045B8005D809A80032000F095FD02231A4696211B
:1045C800204600F0BEF820462E4C3246394602F00E
:1045D8008FF9022303229621204600F0B2F82046E4
:1045E800294C3246394602F083F92A4617212046DB
:1045F80001F0E8FD2046254C2549324602F078F9BD
:10460800204601F02BFD32462249204602F070F97F
:10461800214B049304AF214C214B236097E80300FE
:1046280002AA04F10C0382E8030093E8030087E878
:10463800030092E8030083E803001A4B6361A3694F
:104648000793194BA3612571A5602346174A019565
:1046580041F28831009504F10800069500F05AFBF4
:104668003846FFF7D3FD32461149204602F040F99B
:1046780009B0F0BD90E303207CE3032028E3032086
:10468800C5460D0098E303202CE3032060E30320D4
:10469800F5410D00D5410D00E5400D00ACE30320C8
:1046A800EC6C0D00CD400D00C9400D0079410D00A6
:1046B80029420D0000F07EBB00F074BB10B5044623
:1046C800C06808B100F0A2FD23781BB10021E07991
:1046D80002F0A2F8204610BD38B50446C0680D4661
:1046E80008B100F093FDA379062B0CBF042003202A
:1046F80010FB05F080B2A08000F080FDE06028B1DA
:10470800A288002102F05BFA658038BDA080608035
:1047180038BD38B5037805460C461BB10021C07971
:1047280002F07AF82B78EC7153B1A4B2204601213B
:1047380002F072F820460021BDE8384002F07DB84A
:1047480038BD70B50025044616468371057005729C
:10475800C5600561FFF7C0FF20463146FFF7D9FF66
:10476800204670BDC368002B00F08B812DE9F04F07
:104778008379023BDBB2042B9CBFC44A52F8234026
:1047880087B0054688BF3224FFF794FF2B69C01A0B
:10479800A042F9D3BE4AAB8807CA06AC04E90700B1
:1047A800039C1B01D4F800250433019322B9D4F8E3
:1047B8006035002BC0F25581049CD4F8003523B92C
:1047C800D4F86035002BC0F23C81059CD4F8003544
:1047D8001BB9D4F86035002B6EDBAE4BEA791E6846
:1047E800AD4CAE49E0681201B31840F080705B78B8
:1047F800B75CE0600A6803F01F0343EA4713012728
:104808003A430A600C46A888D5F80C90D4F804A05E
:104818009F408846002844D0CC4600224FF0A04153
:104828001CF801EB0820802663689B1A462BFBD9ED
:10483800D8F80420D1F808351EEA060F43EA070322
:10484800C1F808352FD063689B1A282BFBD9D1F8FB
:104858000C35013843EA07034FEA5606C1F80C3510
:10486800E2D1C9EB0C03A8889BB29842D8D84FF480
:10487800307303FB00F063689B1A462BFBD9D8F80A
:104888000430CAEB030A8245C0F0D5804FF4967015
:10489800FFF712FFA888D5F80C90D4F804A00028D8
:1048A800BAD10246E7E763689B1A112BCFD8636831
:1048B8009B1A112BF7D9CAE7D4F86435002B8CDA88
:1048C800D4F86835002B88DAD4F86C35002B84DAF4
:1048D800019800F093FC00283FF47FAFAB88002BD1
:1048E80000F0D08000273B466D4E6E4900E013462D
:1048F800EA68D25D03F1010E12F0800F14BFB046D2
:1049080088461FFA8EFE12F0400F14BFB146894642
:1049180012F0200F20F8138018BFB24620F81E901E
:1049280008BF8A4603F1020812F0100F03F1030EC4
:1049380014BFB4468C461FFA88F812F0080F1FFA05
:104948008EFE03F104091FFA89F914BFB3468B469A
:1049580012F0040F20F818A020F81EC014BFB246A9
:104968008A4603F1050812F0020F03F1060C03F161
:10497800070E20F819B01FFA8EFE14BFB1468946FB
:104988001FFA88F812F0010F1FFA8CFC14BF324688
:104998000A4620F818A020F81C9020F81E2001379D
:1049A800B5F804E0BFB203F10802BE4592B29ED842
:1049B80003F109020A3392B29BB252005B000199DB
:1049C8004FF4004686524908C65200221423C4F800
:1049D8000425304EC4F80C25C4F80835C4F814254D
:1049E800C4F81025C4F82005C4F82415C4F82825EF
:1049F800C4F82C25EB7931681B01CE18C95C737893
:104A080003F01F0343EA41130121C4F86035C4F8D9
:104A18000015C4F81021A160D4F81031002BFBD088
:104A280000234FF0FF32C4F81031C4F80035C4F841
:104A3800602500F0EBFBFFF73DFE286107B0BDE8FD
:104A4800F08FD4F86435002BBFF6BFAED4F86835C4
:104A5800002BBFF6BAAED4F86C35002BBFF6B5AE56
:104A680036E7D4F86435002BBFF6A6AED4F868351F
:104A7800002BBFF6A1AED4F86C35002BBFF69CAE68
:104A880026E770470423022299E700BF1C6D0D003A
:104A9800106D0D00C8E30320F0ED00E0001000E009
:104AA8000D80FFFF0680FFFFF0B544889DF8145085
:104AB8008C4227D9047A44B112FB04F214FB03F3A5
:104AC80014FB05F4120A1B0A250A8779C66801EB4C
:104AD8004101082F06EB010411D80120B84010F459
:104AE800D27F08D1C0060AD5FF2A08BFFE22725419
:104AF8006570A370F0BD73546270A570F0BD7254F8
:104B08006370A570F0BD43888B42F0B545D9057A2E
:104B1800C2F30743C2F30724D6B245B16B436C43D3
:104B28006E43C3F30723C4F30724C6F3072690F89C
:104B380006C0C768BCF1060F0CBF042503256943EE
:104B4800BCF1080F07EB010524D84FF0010E0EFA4F
:104B58000CFE1EF4D27F0CD11EF0400F0DD11EF0BA
:104B6800100F17D0FF2B08BFFE237B546E70AC705C
:104B7800F0BD7C546B70AE70F0BD7B546C70AE7041
:104B8800037A120E0BB9D2B202E05A43C2F30722DB
:104B9800EA70F0BD7B546C70AE70F0BD42EA012241
:104BA80042EA0040704773B543888B4252D98579F1
:104BB800C268062D0CBF0423032359435618082D39
:104BC800545C7378B1781ED80122AA4012F4D27FBF
:104BD8000AD112F0400F0DD1D20614D5090241EACC
:104BE80004442343019313E0240244EA0343194392
:104BF80001910DE01A0442EA0463F278134343EA90
:104C08000121019104E01B0243EA04430B43019391
:104C1800027AEAB1062D01BF9DF807301B0293FB0B
:104C2800F2F38DF807309DF804301B0293FBF2F382
:104C38008DF804309DF805301B0293FBF2F38DF8D4
:104C480005309DF806301B0293FBF2F38DF8063011
:104C5800019800E0002002B070BD4A1C037AD2B26D
:104C68009A4270B51ED0013B13F0FF03C4680CD004
:104C7800FF291FBF110201F1FF3191FBF3F39BB232
:104C880004BF4FF6FF7191FBF3F32546291B868875
:104C980089B28E4205D929785943091205F8011BB2
:104CA800F4E7027270BD8288C068002101F087BFF6
:104CB80008B500F097F800F095F8014B186008BDAA
:104CC800C8E3032008B5024B1B689B68019308BD25
:104CD8004802030008B5024B1B68DB68019308BD56
:104CE8004802030008B5024B1B681B69019308BD05
:104CF8004802030008B5024B1B685B69019308BDB5
:104D08004802030008B5024B1B68DB69019308BD24
:104D18004802030008B5024B1B681B6A019308BDD3
:104D28004802030008B5024B1B685B6A019308BD83
:104D38004802030008B5024B1B689B6A019308BD33
:104D48004802030008B5024B1B68DB6A019308BDE3
:104D58004802030008B5024B1B681B6B019308BD92
:104D68004802030008B5024B1B685B6C019308BD41
:104D78004802030008B5024B1B681B6F019308BD6E
:104D88004802030008B5024B1B68DB69019308BDA4
:104D98003402030008B5024B1B685B68019308BD29
:104DA8001802030008B5024B1B68DB68019308BDB5
:104DB8001802030008B5024B1B681B69019308BD64
:104DC8001802030008B5024B1B685B69019308BD14
:104DD8001802030008B5024B1B68DB6D019308BD80
:104DE8001802030008B5024B1B681B68019308BD35
:104DF8002C02030008B5024B1B689B68019308BD91
:104E08002C02030008B5024B1B68DB68019308BD40
:104E18002C02030008B5024B1B681B69019308BDEF
:104E28002C02030008B5024B1B681B6A019308BDDE
:104E38002802030008B5024B1B685B6A019308BD92
:104E48002802030008B5024B1B689B6A019308BD42
:104E58002802030008B5024B1B68DB6A019308BDF2
:104E68002802030008B5024B1B681B6B019308BDA1
:104E78002802030008B5024B1B685B6B019308BD51
:104E88002802030008B5024B1B681B6C019308BD80
:104E98002802030008B5024B1B685B69019308BD33
:104EA8006C02030008B5024B1B685B69019308BDDF
:104EB8006402030008B5024B1B681B6A019308BD16
:104EC8006402030008B5024B1B689B6A019308BD86
:104ED8006402030008B5024B1B689B68019308BD78
:104EE8006802030008B5024B1B68DB68019308BD24
:104EF8006802030008B5024B1B681B68019308BDD4
:104F08003802030008B5024B1B685B68019308BDB3
:104F18003802030008B5024B1B68DB68019308BD23
:104F28003802030008B5024B1B689B69019308BD52
:104F38003802030008B5024B1B68DB69019308BD02
:104F48003802030008B5024B1B681B6A019308BDB1
:104F58003802030008B5024B1B685B6A019308BD61
:104F68003802030008B5024B1B689B6A019308BD11
:104F78003802030008B5024B1B681B6B019308BD80
:104F88003802030008B5024B1B689B6B019308BDF0
:104F98003802030008B5024B1B68DB6B019308BDA0
:104FA8003802030008B5024B1B68DB69019308BD92
:104FB8003002030008B5024B1B681B6A019308BD49
:104FC8003002030008B5024B1B681B68019308BD3B
:104FD8003C02030008B5024B1B68DB68019308BD5F
:104FE8003C02030008B5024B1B681B69019308BD0E
:104FF8003C02030008B5024B1B685B69019308BDBE
:105008003C02030008B5024B1B689B69019308BD6D
:105018003C02030008B5024B1B68DB69019308BD1D
:105028003C02030008B5024B1B681B6A019308BDCC
:105038003C02030008B5024B1B689B6A019308BD3C
:105048003C02030008B5024B1B681B68019308BDAE
:105058004C02030008B5024B1B685B68019308BD4E
:105068004C02030008B5024B1B681B69019308BD7D
:105078004C02030008B5024B1B685B69019308BD2D
:105088004C02030008B5024B1B689B69019308BDDD
:105098004C02030008B5024B1B68DB69019308BD8D
:1050A8004C02030008B5024B1B681B6A019308BD3C
:1050B8004C02030008B5024B1B689B6A019308BDAC
:1050C8004C02030008B5024B1B685B6B019308BDDB
:1050D8006002030008B5024B1B681B6D019308BDF5
:1050E8006002030008B5024B1B685B68019308BDAA
:1050F8002002030008B5024B1B685B69019308BDD9
:105108002002030008B5034B1B68D3F888300193CD
:1051180008BD00002002030008B5034B1B68D3F844
:105128009430019308BD00002002030008B5024B2B
:105138001B689B68019308BD4402030008B5024B35
:105148001B68DB6B019308BD4402030008B5024BE2
:105158001B681B68019308BD4002030008B5024B99
:105168001B685B68019308BD4002030008B5024B49
:105178001B689B68019308BD4002030008B5024BF9
:105188001B68DB68019308BD4002030008B5024BA9
:105198001B681B69019308BD4002030008B5024B58
:1051A8001B685B69019308BD4002030008B5024B08
:1051B8001B689B69019308BD4002030008B5024BB8
:1051C8001B68DB69019308BD4002030008B5024B68
:1051D8001B681B6A019308BD4002030008B5024B17
:1051E8001B681B6B019308BD4002030008B5024B06
:1051F8001B685B6B019308BD4002030008B5024BB6
:105208001B681B68019308BD1C02030008B5024B0C
:105218001B685B68019308BD1C02030008B5024BBC
:105228001B689B68019308BD1C02030008B5024B6C
:105238001B685B6A019308BD1C02030008B5024B9A
:105248001B68DB6B019308BD1C0203000021FFF7FC
:1052580051BF002211464068FFF7B8BF002211462F
:105268004068FFF7C3BF00224068FFF7B7BF0022BE
:1052780081F001014068FFF7A1BF00231A461946D3
:105288004068FFF793BF00231A4619464068FFF7A6
:1052980085BF002211464068FFF778BF00221146FB
:1052A8004068FFF763BF002202214068FFF766BF2E
:1052B80000231A464068FFF751BF0000024B032243
:1052C8005A60024A1A607047CCE30320386D0D001B
:1052D8007047F8B5064615460C468F18BC4206D0EE
:1052E800336814F8011B9B6830469847F6E7284650
:1052F800F8BD0022007CFFF795BD0021007CFFF778
:1053080099BD0021007CFFF79DBD0021007CFFF7BF
:10531800A1BD0021007CFFF7A5BD10B50446FEF72E
:10532800B8FE204610BD000010B504464FF47A734D
:105338000846A3600021044B207461602360FFF7D6
:10534800A1FD204610BD00BF6C6D0D000021007C42
:10535800FFF790BD704710B50446FEF79AFE204649
:1053680010BDF0B5037D062B8DB00E4600F1040785
:105378004FF0000402D000F1080518E00CAD3946E2
:1053880005F8304D2F232A460A20FFF78BFD2846C3
:1053980001F092FC33680246DB682946304698479C
:1053A8000FE024B12E21304600F0DAF9044415F854
:1053B800011D0A22304600F029FABD420444F0D10A
:1053C80020460DB0F0BD000010B5054B0446112273
:1053D80040F8043B002101F0F2FB204610BD00BF5D
:1053E800946D0D000346074A10B543F8042B01F1EC
:1053F800100251F8044B43F8044B9142F9D10A7852
:105408001A7010BD946D0D00037D042B01D1406806
:1054180008E0062B0AD1436853B1836843B1C368D7
:1054280033B10069003018BF012070470020704771
:105438001846704710B59DF8084044EA032343EA2C
:10544800024242EA016104234160037510BD37B589
:105458000D788B784A78C97800912946FFF7EAFFDA
:1054680003B030BD014B024A1A607047D4E30320F1
:10547800556E0D00002211464068FFF7A7BE0022B6
:1054880011464068FFF7B2BE00224068FFF7A6BE8B
:10549800002281F001014068FFF790BE00231A4600
:1054A80019464068FFF782BE00231A46194640682D
:1054B800FFF774BE002211464068FFF767BE00225E
:1054C80011464068FFF752BE002202214068FFF7EC
:1054D80055BE00231A464068FFF740BE38B505465A
:1054E80078B1046844B1A3681BB103222146204661
:1054F80098472046FEF7CDFD2846BDE83840FEF720
:10550800C8BD38BD10B103685B681847704710B54F
:1055180003680446BBB15868FFF7D4FB78B9236821
:105528005A7C12B95868FFF7DDFB23685868FFF703
:10553800E1FB20680023236028B1FFF7CFFF206834
:1055480008B1FFF7CBFF204610BD000038B50B4B64
:1055580003600446D0F8CC0108B1FEF79CFDD4F8EE
:10556800C4512DB12846FFF7D2FF2846FEF791FD1A
:10557800A06808B1FFF7C6FF204638BD886E0D0049
:1055880038B50D4C0D4B23600025022304F5E4705B
:105598006360A560C4F8C451C4F8C851FFF7E2FBC2
:1055A800074BC4F8CC5123602046064A0649BDE89B
:1055B800384001F09DB900BFD8E30320BC6E0D0050
:1055C800886E0D0028E3032055550D0000231A4668
:1055D8004068FFF7C3BD002202214068FFF7CEBD37
:1055E800002211464068FFF7C1BD002211464068FD
:1055F800FFF7CCBD00231A4619464068FFF7CEBD19
:1056080000231A4619464068FFF7D0BD002281F0F2
:1056180001014068FFF7D2BD00224068FFF7DEBDF8
:10562800002211464068FFF7E1BD0022114640689C
:10563800FFF7CCBD2DE9F043002495B016460D4682
:105648000746FFF7C1FE214620220CA8009401F06E
:10565800B6FA40230C9321466B460CAA3046FFF756
:1056680041FC0446002844D1024601216868FFF73E
:105678008DFD0221804622466868FFF787FD009E5F
:1056880081462146002E34D0002932D17368022B7E
:1056980002D00A2B09D02AE0B8F1000F27D071698F
:1056A80038460431FFF7D3FE20E0B9F1000F1ED0D1
:1056B8007469112201A801F082FA06238DF81430CA
:1056C80001AD04F108031834186859682A4603C262
:1056D8000833A3421546F7D101A906A807ADFFF77D
:1056E80081FE0FCD3C1D0FC42B6823700121F66984
:1056F800C8E70098FFF7EEFB384615B0BDE8F08321
:10570800024B034A1A6000225A607047A8E503203A
:10571800BC6E0D00F8B506460D468F180024BD4234
:105728000CD0336815F8011B9B6830469847002851
:1057380001DB0444F3E7002C08BF04462046F8BD0B
:1057480070B505460C46084649B101F0B5FA2B6814
:10575800024621462846DB68BDE87040184770BD00
:1057680003689B6818470A680B4612680146184682
:10577800104738B50D210546FFF7F2FF0A21044608
:105788002846FFF7EDFF204438BD38B50546FFF73A
:10579800D7FF04462846FFF7ECFF204438BD38B54C
:1057A8000546FFF7E0FF04462846FFF7E2FF2044DE
:1057B80038BD30B58BB00B4600218DF82410012A76
:1057C80098BF0A220DF12304B3FBF2F505FB12334F
:1057D80003F0FF03092B94BF30333733DBB2214684
:1057E80004F801392B46002DEED1FFF7A9FF0BB0C5
:1057F80030BD10B42AB903685DF8044B9B68C9B280
:105808001847D2B25DF8044BFFF7D3BFFFF7F1BFDB
:1058180010B5044630B101F003FA90FBF4F303FB32
:10582800140010BD10BD10B50446FEF7EFFC20466D
:1058380010BD00000348044A04490023836001F0B6
:1058480057B800BFB0E5032028E303202F580D0008
:10585800704710B50446FEF71CFC204610BD00003A
:1058680070B5084B0360044600250E4640F80C5FEF
:10587800FFF770FA30462671FFF794FBA5602046C3
:1058880070BD00BF086F0D000079FFF793BB10B51E
:105898000446FFF797FAE060236820465B6998475B
:1058A800002808DAFFF78EFAE368C01AA36898425E
:1058B800F2D34FF0FF3010BD38B50D460749044606
:1058C80000F055F82846FFF7E2FF002804DBC1B2D4
:1058D800204600F09BF8F5E7204638BDB66D0D0070
:1058E80010B504460068FFF791FC204610BD10B5BE
:1058F8000446006808B1FFF789FC00232360A36011
:10590800636010BD38B504460D4600680131FFF7E5
:1059180085FC10B184E82100012038BD10B503686A
:10592800044613B143688B4207D22046FFF7EAFFCB
:1059380020B1A3680BB922681370012010BD70B59F
:105948000E46114604461546FFF7E8FF18B92046EB
:10595800FFF7CDFF09E02A463146A560206801F02F
:1059680023F92268A3680021D154204670BD38B5B8
:105978000023044603604360836003730D4639B116
:10598800084601F099F9294602462046FFF7D7FF55
:10599800204638BD38B505460C4641B1084601F0E9
:1059A8008BF9214602462846FFF7C9FF01E0FFF7B9
:1059B8009EFF284638BD10B504468AB000232360F0
:1059C8006360A36023730846012301A900F06DFEFC
:1059D80001A92046FFF7DEFF20460AB010BD70B5CA
:1059E80004460E4609B9002070BD6AB18368D5180F
:1059F8002946FFF793FF0028F5D02068A3683146B1
:105A0800184401F051F9A560012070BD07B50023C5
:105A18008DF80410012201A98DF80530FFF7DFFF8A
:105A280003B05DF804FB08B582680B4612B919B9D2
:105A3800012008BD11B90368187802E0006801F078
:105A480029F9B0FA80F0400908BD00002DE9F041BD
:105A58009A420E461C46104988BF1346154607460B
:105A680084BF25461C46FFF782FFB1688D420FD8D8
:105A78008C4228BF0C463368002213F804801A555C
:105A8800316838462944FFF785FF336803F80480F6
:105A98003846BDE8F08100BFB66D0D000EB4FFB505
:105AA80009AC054654F8047B019423463A4605217F
:105AB80002A8FFF7BBFB0C4906462846FFF757FF2D
:105AC80031462846FFF72AFF286830B123463A4670
:105AD800711C0194FFF7AAFBA860284604B0BDE832
:105AE800F04003B0704700BFB66D0D00FFF74AB92C
:105AF800044B00204FF6FF72187058809A80FFF709
:105B0800F1BA00BFC0E5032037B502AC036804F85A
:105B1800011DDD6B01224FF0FF332146A84703B07A
:105B280030BD10B40368DC6B4FF0FF33A4465DF85A
:105B3800044B604737B502AC036804F8011DDD6B00
:105B4800214613460122A84703B030BD704738B537
:105B580043691A68002A044605DAB3F88620B3F8C0
:105B680084309A4201D001250BE003681B699847ED
:105B7800002814BF0125002503D123682046DB6ACD
:105B88009847284638BD43691868C043C00F704716
:105B980070470020704710B50446FEF77AFA204691
:105BA80010BDFEF776BA00002DE9F0439846036869
:105BB80093B0DB6A0C4606461746984712AB002599
:105BC80043F8485D2A4629462046FFF78BF9002806
:105BD8003ADB009B002B39D05B69002B36D006A836
:105BE800FFF7F2FB009B5C696378022B01D1211D52
:105BF80013E00A2B14D11122294601A800F0DFFF77
:105C0800A36833BBE36823BB4FF6FF702569FFF732
:105C180051F985421DD104F1140106A8FFF717FCBC
:105C280006A8FFF7F1FB88B1336807ADD3F82090D9
:105C3800184B0C930FCD0DAC0FC42B6823703A464C
:105C480043460CA93046C84704461CE04FF0FF34D1
:105C580019E004F1080301AD1834186859682A4698
:105C680003C20833A3421546F7D1062301A90CA89D
:105C78000DAD8DF81430FFF7B5FB0FCD07AC0FC491
:105C88002B682370CCE70098FFF724F9204613B05F
:105C9800BDE8F083946D0D007FB516460022426082
:105CA800029203925A1C04460D4608D04FF47A72A9
:105CB800B3FBF2F1029102FB11314A43039260698E
:105CC8000823009341F205026B4440F6FF71006817
:105CD800FFF728F9002808DB6069002332462946C7
:105CE8000068FFF747F9002804DAFFF7A7FA036806
:105CF8006360002004B070BD10B5036804469B685B
:105D08009847A368013BA3602BB923682046DB684A
:105D1800BDE81040184710BD70B504464D69054BE5
:105D280044F8043B8C3506460FCD0FC42B6823700E
:105D3800304670BD946D0D0010B54369B3F88620E8
:105D4800B3F884309A42044605D06269B2F88430C8
:105D58001344187910BD03681B6998470028F4D1CB
:105D68004FF0FF3010BD10B54369B3F88620B3F883
:105D780084309A42044608D06269B2F88430591CCB
:105D88001344A2F88410187910BD03681B6998475A
:105D98000028F1D14FF0FF3010BDF8B54369174620
:105DA800B3F88620B3F884309A4205460E4606D1E9
:105DB80003681B69984710B94FF0FF3414E069690C
:105DC800B1F88430B1F88640E41ABC4228BF3C469A
:105DD800194422460431304600F0E6FE6A69B2F8FA
:105DE80084302344A2F884302046F8BD4269002359
:105DF800A2F884304269A2F8863070472DE9F04154
:105E0800984603680D468AB0DB6A064617469847E7
:105E18002B7D7469042B0CBF02200A200622012165
:105E2800FFF7B0F8206073691C68002C5BDB304614
:105E3800FFF7DCFFB8F1000F17D0002303A95FFAC2
:105E480088F00393ADF81030FFF724F8002849DBF9
:105E580070690623009341F20B0203AB40F6FF7111
:105E68000068FFF75FF800283CDB1C24224600216D
:105E780003A800F0A4FE2B7D8DF80C40042B0CD158
:105E8800022338468DF80D30FFF71CF8ADF80E00E8
:105E98006868FFF70FF8049013E00A2338468DF876
:105EA8000D30FFF70FF805ACADF80E002B1D05F10E
:105EB800140718685968224603C20833BB421446BF
:105EC800F7D173691C2203A91868FFF73BF800286B
:105ED80008DB2C1D0FCC76698C360FC6236833700F
:105EE800012404E0044633683046DB6A98472046BC
:105EF8000AB0BDE8F08110B5436904461868002867
:105F080001DBFFF717F863694FF0FF321A60606929
:105F1800112200218C3000F052FE2046BDE81040CE
:105F2800FFF764BF30B54269B2F886308BB00446DB
:105F38001BB1B2F884209A4240D0636918680028DF
:105F48003FDBB3F886507F2D3BD8191DC5F1800281
:105F580008232944FFF706F800280CDD6369B3F825
:105F680086200AB9A3F884206269B2F886301844FA
:105F7800A2F8860025E0FFF761F903680B2B20D013
:105F8800FFF75CF903680B2B1BD020230025029335
:105F98000395FFF753F9036801930E4B009302AA88
:105FA8002B460D493220FFF795F863691868FEF70C
:105FB800C1FF63694FF0FF321A6002E0FFF716FF76
:105FC800BBE76269B2F88630B2F88400181A0BB0E1
:105FD80030BD00BF7F6F0D00786F0D0010B5002336
:105FE80004460160A0F88430A0F886308830FFF7B6
:105FF800EBF9204610BD00004FF47A7270B500230B
:106008008260144A43600260436183610446A020B1
:106018000E46FEF73CF8054610B13146FFF7DEFFA5
:106028001420FEF734F8034628B10122426082604A
:10603800094A02600561A0696561A36128B14368E6
:10604800013B43600BB9FFF757FE2046FFF7CEFE32
:10605800204670BD346F0D00186F0D0010B54FF05D
:10606800FF310446FFF7C8FF204610BD10B50446AF
:106078000068002801DBFEF75DFF204610BD10B563
:1060880004692046FFF7F2FF24B12046BDE810401E
:10609800FDF7FFBF10BD37B502AC036804F8011D5A
:1060A8009D69214613460122A84703B030BD13B5A8
:1060B80002AB026803F8011DD46819460122A04703
:1060C80002B010BD10B403689C694FF0FF33A446BA
:1060D8005DF8044B604710B504460020A06104F148
:1060E8001400FFF7D9FDA369636010BD10B50368FC
:1060F80004469B689847A368013BA3602BB92368B3
:106108002046DB68BDE81040184710BD70B51C2458
:1061180094B00D460646FFF757F9224600210DA810
:1061280000F04DFD14AA6B6942F84C4D0DA9186892
:10613800FEF7F0FE014668BB9DF83530022B01D111
:106148000EA924E00A2B25D102AC1122204600F02A
:1061580036FD0F9B43B9109B33B94FF6FF70119D65
:10616800FEF7A8FE854211D00FAB0FCB08AD84E82F
:106178000F000623214607A88DF81830FFF732F9DB
:106188000FCD341D0FC42B68237003E012A93046CD
:10619800FFF75DF9304614B070BD000010B5034B31
:1061A80003600446FEF712F8204610BD00700D008B
:1061B80010B50446FFF7F2FF2046FDF76AFF2046B8
:1061C80010BD0000F8B50025114B03604FF0FF36F5
:1061D800C260456001810661314604461430FFF70C
:1061E8000BFF29462846FEF78DFD0A4B1A681D4607
:1061F80042B91C20FDF74BFF074610B13146FFF7A7
:10620800FBFE2F6000210120FEF77CFD2046F8BD33
:106218004C700D00C8E5032010B504461430FFF794
:106228006AFE2069FEF786FE4FF0FF33236110BD3A
:1062380070B504468CB0FFF7EFFF2369002B5ADADC
:106248001C252A46002105A800F0B9FC8DF8145039
:1062580020890A258DF81550FEF734FE0622ADF880
:10626800160001212846FEF78DFE0028206130DB4C
:106278000CAB0122042643F8282D40F6FF71009646
:106288003246FEF74FFE054618BB02460321206939
:10629800FEF780FE021E1CDB42F001023146206937
:1062A800FEF778FE002814DBE068B8B103A9C0B295
:1062B8000395ADF81050FEF7EDFD50B90623009395
:1062C80041F20B0203AB40F6FF712069FEF72AFE8C
:1062D80020B120460025FFF79FFF0DE01C2205A9ED
:1062E8002069FEF70FFE0028F3D105212069FEF78B
:1062F80031FE0028EDD1012528460CB070BD38B517
:106308004B6843608B688360CB68C3600B6903612B
:106318004B6943618D6983699D4204460CD015B170
:106328006B6801336B60A06928B14368013B436027
:106338000BB9FFF7DBFEA561204638BD0C4B0360A7
:106348004B6843600B4B03608B688360CB68C3600A
:10635800094B03600B690361084B03604B69436198
:106368008B69836113B15A6801325A60704700BF64
:10637800F06E0D00986F0D00C06F0D00346F0D00AA
:106388002DE9F0410B69002B96B007460C4603DA5D
:106398000B6808461B6998472569002D04F1140607
:1063A80005DA244B30461968FFF7A9FF36E04FF0AD
:1063B8001C084246002108A800F001FC16AA08A9FA
:1063C80042F8548D2846FEF795FD011E0FDA194B49
:1063D80030461968FFF793FFFEF730FF03680B2B71
:1063E8001CD0FEF72BFF03680B2B1FD116E00FA85C
:1063F800FFF702FE03AD104B0F930FA902A8149CE0
:10640800FFF784FE0FCD8C340FC42B6823700FA9BF
:106418003046FFF774FF0FA8FFF7C0FE3146384635
:10642800FFF78CFF384616B0BDE8F0812046FFF72D
:10643800F3FEF3E7C8E5032000700D00024B1A686D
:10644800024B1A60704700BFC0E20320CCE503206E
:10645800704741747047007CFEF7ECBD007CFEF786
:10646800C1BD007CFEF7CEBD007CFEF7C3BD007C3D
:10647800FEF7D0BD10B50446FDF70BFE204610BD53
:1064880070B5457C04460E4625B9007CFEF7D2FD62
:10649800002805DD3146207CBDE87040FEF79ABD36
:1064A800284670BD10B504460846114600226260B1
:1064B8004FF47A72A260054A226001222074627445
:1064C8001A46FEF77FFD204610BD00BF9C700D00E8
:1064D800007CFEF7A7BD000038B50C4D296811F007
:1064E800010411D12846FDF7E3FD68B1084A094BBC
:1064F80009482146FFF7D6FF2846FDF7DEFD074A83
:106508000749054800F0F4F9034838BD68E6032058
:106518006CE60320E4E50320D0E5032028E303200C
:1065280059640D004174704770470021007CFEF7E4
:10653800A9BD0121007CFEF7A5BD007CFEF79ABD30
:10654800007CFEF78FBD38B50446007C0D46FEF78B
:1065580091FD002801DC607C20B12946207CFEF7F3
:1065680099FD012038BD007CFEF79CBD10B504469E
:10657800FDF78FFD204610BD10B50446002363606B
:106588004FF47A73A360054B2360012308462174F6
:1065980063741146FEF756FD204610BDCC700D0001
:1065A8000022007CFEF756BD007CFEF783BD10B5C7
:1065B80014220446002100F002FB204610BD000012
:1065C80030B50E4D87B001A8FFF7F1FF296811F02B
:1065D800010410D12846FDF76BFD60B101AA2146E0
:1065E8000748FFF7C9FF2846FDF767FD054A064932
:1065F800034800F07DF9024807B030BDF0E60320FB
:10660800F4E6032028E3032031650D00002211463B
:106618004068FEF7BBBD002211464068FEF7D6BDB4
:10662800002211464068FEF7E1BD00224068FEF7EF
:10663800D5BD002281F001014068FEF7BFBD0023EF
:106648001A4619464068FEF7B1BD00231A46194696
:106658004068FEF7A3BD002211464068FEF786BDDC
:10666800002202214068FEF789BD00231A464068CF
:10667800FEF774BD024B04225A60024A1A60704742
:1066880008E70320FC700D0010B5044600F014FB69
:10669800013823182046984206D20278197800F863
:1066A800011B03F80129F6E710BD70B50C46911ED1
:1066B800222920D82546294610B9234430220EE045
:1066C800B0FBF2F602FB1600C1B205F8011B09285F
:1066D80094BF3031573105F8011C3046EBE7994239
:1066E80002D201F8012BFAE7002320460B70FFF7CE
:1066F800CBFF204670BD002070BD000008B50C4BD4
:1067080033B1FFF75DFF03681B699847002809DC70
:10671800084B63B1FFF7E0FE03681B699847002840
:1067280003DC08BDAFF30080F2E7AFF3008008BDDB
:10673800000000000000000008B5FFF7DFFFFEF7CB
:1067480041FB014B186008BD14E7032007B500237F
:1067580000931A466FF07701FEF7DEFC03B05DF890
:1067680004FB000007B543880A2B08D0502B09D139
:10677800094B1B683BB103B05DF804EB1847FFF702
:10678800E5FF06E0002300931A466FF07701FEF755
:10679800C3FC03B05DF804FB10E7032010B5FEF757
:1067A800F9FA044600F014FA074B13B12046AFF388
:1067B800008000210448FEF7C1FC00210348BDE821
:1067C8001040FEF79FBC00BF000000006D670D0081
:1067D80010B504460F48FFF757F828B1A4F10B038A
:1067E800022B01D8002010BD00F040F8FEF7AEFDE6
:1067F80008B1012CF6D9FFF76FFEFFF769FE18B153
:10680800A4F10903012BEDD9232C8CBF0020012012
:1068180010BD00BF30E70320232838B504460D46D5
:106828000AD8FF2908D0FFF7D3FF28B12946204608
:10683800BDE83840FEF7DEBA38BD38B504460D4627
:10684800FEF7E0FAFF2810D0062804D84D2323FAD3
:1068580000F0C30709D42046FFF7BAFF28B129463C
:106868002046BDE83840FEF7D5BA38BD38B50B4DDF
:10687800296811F001040FD12846FDF719FC58B119
:1068880021460748FEF750FD2846FDF716FC054A45
:106898000549034800F02CF8014838BD18E70320E3
:1068A8001CE7032028E30320D9520D0070B50C4CD7
:1068B8000C4E0D4D00212046FEF7D2FF20460B4C12
:1068C8003246294600F014F801212046FEF7C8FF99
:1068D800324629462046BDE8704000F009B800BF9E
:1068E80030E7032028E3032059580D0040E7032030
:1068F8000B460146184600F049B90000244B1A68B7
:10690800D0075CBF01221A60224B1A68D1075CBF0E
:1069180001221A60204B1A68D2075CBF01221A6054
:106928001E4B1A68D0075CBF01221A601C4B1A68FC
:10693800D1075CBF01221A601A4B1A68D2075CBFE4
:1069480001221A60184B1A68D0075CBF01221A602E
:10695800164B1A68D1075CBF01221A60144B1A68DB
:10696800D2075CBF01221A60124B1A68D0075CBFBD
:1069780001221A60104B1A68D1075CBF01221A6005
:106988000E4B1A68D2075CBF01221A60704700BF1D
:106998007CE7032078E7032074E7032070E70320EF
:1069A8006CE7032068E7032064E7032060E703201F
:1069B8005CE7032058E7032054E7032050E703204F
:1069C800184B1A68D1075CBF01221A60164B1A6867
:1069D800D2075CBF01221A60144B1A68D0075CBF4B
:1069E80001221A60124B1A68D1075CBF01221A6093
:1069F800104B1A68D2075CBF01221A600E4B1A6846
:106A0800D0075CBF01221A600C4B1A68D1075CBF23
:106A180001221A600A4B1A68D2075CBF01221A6069
:106A2800704700BF9CE7032098E7032094E7032002
:106A380090E703208CE7032088E7032084E70320FE
:106A480080E70320184B1A68D1075CBF01221A603F
:106A5800164B1A68D2075CBF01221A60144B1A68D9
:106A6800D0075CBF01221A60124B1A68D1075CBFBD
:106A780001221A60104B1A68D2075CBF01221A6003
:106A88000E4B1A68D0075CBF01221A600C4B1A68BB
:106A9800D1075CBF01221A600A4B1A68D2075CBF93
:106AA80001221A60704700BFBCE70320B8E7032043
:106AB800B4E70320B0E70320ACE70320A8E70320EE
:106AC800A4E70320A0E70320244B1A68D0075CBF83
:106AD80001221A60224B1A68D1075CBF01221A6092
:106AE800204B1A68D2075CBF01221A601E4B1A6835
:106AF800D0075CBF01221A601C4B1A68D1075CBF23
:106B080001221A601A4B1A68D2075CBF01221A6068
:106B1800184B1A68D0075CBF01221A60164B1A6816
:106B2800D1075CBF01221A60144B1A68D2075CBFF8
:106B380001221A60124B1A68D0075CBF01221A6042
:106B4800104B1A68D1075CBF01221A600E4B1A68F5
:106B5800D2075CBF01221A60704700BFECE7032030
:106B6800E8E70320E4E70320E0E70320DCE703206D
:106B7800D8E70320D4E70320D0E70320CCE703209D
:106B8800C8E70320C4E70320C0E7032010B5054C7D
:106B980013462CB10A4601460220AFF3008010BD0F
:106BA800204610BD0000000010B5431E0A44914263
:106BB80004D011F8014B03F8014FF8E710BD024467
:106BC8000346934202D003F8011BFAE7704700001E
:106BD80038B5124B1C68A36B0546D3B91820FEF7CD
:106BE8000DFB43F20E33A06303804AF6CD33438096
:106BF80041F2342383804EF26D63C3804DF6EC631B
:106C08000381052343810B23838101220023C0E9EB
:106C18000423A36B00221D615A6138BD24E30320BD
:106C2800194B10B51C68A36BD3B91820FEF7E6FA08
:106C380043F20E33A06303804AF6CD33438041F21A
:106C4800342383804EF26D63C3804DF6EC63038179
:106C5800052343810B23838101220023C0E90423F8
:106C6800A16B0A4C0B694869094A5C4302FB004066
:106C7800A3FB02230132034443F10003C1E90423C7
:106C880023F0004010BD00BF24E303202DF4515829
:106C98002D7F954C10F8012B11F8013B012A28BFD4
:106CA8009A42F7D0D01A7047034611F8012B03F81F
:106CB800012B002AF9D17047034613F8012B002A4B
:106CC800FBD1181A013870471D400D0059400D00BE
:106CD80085400D0089400D00000000000000000004
:106CE8000000000029420D007D420D006D410D009D
:106CF8000A61636B3A20256420282573290A004419
:106D0800465500504154000000C0014000100240A8
:106D1800002002402C01000018000000F4010000CF
:106D28002C010000500000000000000000000000DE
:106D3800B9520D00AF520D00A5520D009B520D0027
:106D48008F520D0083520D0077520D006F520D00C7
:106D580065520D005B520D003D560D00000000000D
:106D680000000000D9520D0023530D00FB520D0006
:106D7800DB520D0003530D000B530D0013530D0090
:106D88001B530D0000000000000000006B530D00B5
:106D98005D530D005F530D0066006C6E00666E005B
:106DA800636F64650064657461696C000D0A002591
:106DB8003031307520005D20002C200028293A2031
:106DC80000205B00636F6465203D20002569006436
:106DD800657461696C73203D2000626175640053BD
:106DE800657269616C0053657269616C3100747910
:106DF800706500706172616D00636D6400696400A4
:106E0800686E64007374726D0066696C74006C76E9
:106E18006C0061646448616E646C65720072656DD3
:106E28006F766548616E646C657200656E756D4855
:106E3800616E646C657273004A534F4E5374726589
:106E4800616D4C6F6748616E646C6572006170704B
:106E5800006E6F6E6500747261636500696E666FBF
:106E6800007761726E006572726F720070616E6990
:106E78006300616C6C00000000000000000000006E
:106E8800DB540D00D1540D00C7540D00BD540D0046
:106E9800B1540D00A5540D0099540D0091540D00E6
:106EA80087540D007D540D003D560D000000000074
:106EB80000000000D5550D00DF550D00E9550D0007
:106EC800F3550D00FD550D0009560D0015560D0022
:106ED80021560D0029560D0033560D003D560D0064
:106EE800000000000000000000000000000000009A
:106EF800A5400D001D570D00000000000000000017
:106F080059580D005B580D000000000000000000FB
:106F1800995B0D009F5B0D0087600D00AB5B0D005A
:106F28009B5B0D000000000000000000D5410D0033
:106F380099420D00115B0D002B5B0D002D5F0D00BC
:106F48006F5D0D00415D0D00555B0D00055E0D0088
:106F5800B15B0D00A35D0D00FF5E0D00575B0D00DA
:106F68008F5B0D003D5B0D00A15C0D00215D0D00E8
:106F7800776972696E670072656376206572726FF1
:106F880072203D2025640000000000000000000081
:106F98000000000000000000A5400D001D570D0076
:106FA800A5400D00A5400D00A5400D00A5400D0011
:106FB80000000000000000000000000000000000C9
:106FC800A5400D00A5400D00A5400D00A5400D00F1
:106FD800A5400D00A5400D00A5400D00A5400D00E1
:106FE800A5400D00A5400D00A5400D00A5400D00D1
:106FF8000000000000000000A5610D00B9610D004F
:10700800115B0D002B5B0D002D5F0D006F5D0D00FA
:10701800415D0D00555B0D00055E0D00B15B0D0077
:10702800A35D0D00FF5E0D00575B0D008F5B0D002B
:107038003D5B0D00A15C0D0015610D000000000016
:1070480000000000F5410D00AB420D00B7600D00D7
:10705800CD600D0039620D009F600D00DF600D00EE
:107068005A00252B3033643A253032750025592DC6
:10707800256D2D25645425483A254D3A2553257A02
:107088000061736374696D65000000000000000012
:107098000000000059640D007D640D0089640D0036
:1070A8001D570D0065640D0071640D006B640D00C3
:1070B80077640D005B640D005F640D000000000044
:1070C8000000000031650D0075650D004F650D006D
:1070D8001D570D0049650D0033650D003B650D001A
:1070E8006F650D0043650D002D650D000000000063
:1070F8000000000073660D0069660D005F660D00F4
:1071080015660D0053660D0047660D003B660D00C1
:1071180033660D0029660D001F660D003D560D00F3
:107128000000000000000000000000000000000057
:107138000000000000000000000000000000000047
:107148000000000000000000000000000000000037
:107158000000000000000000000000000000000027
:107168000000000000000000000000000000000017
:107178000000000000000000000000000000000007
:1071880043000000A1450D00B94C0D00C5520D008B
:107198006D540D0089550D0009570D003D580D001F
:1071A800F95A0D0045640D007D660D00B5680D00A7
:1071B80005690D00C9690D004D6A0D00D16A0D0001
:0871C8000000000000000000BF
:1071D00089700D000000000028710D0048710D003D
:1071E00068710D00000000000000000000000000B9
:1071F0000000000088710D00000000000000000089
:10720000000000000000000000000000000000007E
:10721000000000000000000000000000000000006E
:10722000000000000000000000000000000000005E
:0872300000000000C4E203208D
:10723800FFFFFFFF00000102030405060708090A13
:107248000B0C0D0E0F101112131415161718191A0E
:087258001B1C1D1E1F20280055
:047260007856341216
:04000003D0004018D1
:00000001FF
