:02000004080AE8
:1000000000000A08641E0A08000006000600050138
:0800100004024E040000000090
:10001800A41A0A0809480A4908B5884205D0094AB5
:10002800824202D0121A01F0F5FC0748074A002163
:10003800121A01F0FAFC064808BD00BF00030020B0
:10004800D41D0A086803002068030020C4090020A2
:10005800C409002070B501F0C5FA074B074C1E46CD
:10006800E41AA4080025A54204D056F8253098477C
:100078000135F8E770BD00BF681D0A08C41D0A08ED
:1000880000F06AB808B500F019F9BDE8084001F0B9
:100098006BBA00F073BE0078B0FA80F04009704780
:1000A80001230370704713B503680A461C680023D0
:1000B8008DF800308DF801308DF802308DF804305D
:1000C8008DF805308DF80630694601ABA04702B0BF
:1000D80010BD000010B504460121022001F0D2FA3B
:1000E8002023A361014BE36110BD00BF140402404B
:1000F80010B40029094900EB400014BF4FF4004335
:100108004FF47F030A181C0C1B0A0C545370044844
:1001180000239370017810BC00F020BC99030020E4
:100128001C04002070B55A21094800F05AFB00242D
:1001380001460020FFF7DCFF2646064D665500F015
:1001480097FC2B190834602C5860F7D170BD00BF9C
:1001580098030020B403002010B501F011F94FF402
:10016800165101F0F3F82648046814F001041FD171
:10017800FFF791FFE0B1234BFF221A735A739A736A
:10018800DA731A745A7401229A741F4A5C601168EF
:100198005C619C6001B913601C4A116801B18B60F5
:1001A800136000221A841A4A15481A60FFF778FF6C
:1001B800002308221749134800F09EFB164B3222F1
:1001C8001A7000231A4613481A54C1180333182BFF
:1001D8004A708A70F8D132210F4800F0BFFBFFF750
:1001E800A1FF0E4800231A461946406800F06EFD2C
:1001F80001F0C6F8BDE81040094A002100F06FBFC1
:10020800700300207403002034040020240400201C
:10021800C01A0A08990300201C040020C008002006
:10022800D01A0A08F8B50D4800F0A3FA07460C4D95
:10023800002447FA04F315F8342003F001039A4226
:100248004FEAC40605D005F8343000F011FC2E44FE
:10025800706001340C2CECD1F8BD00BF980300206D
:10026800B403002010B5094C00F002FC00231A5D0D
:1002780052B1E1184968411AB1F5FA6F03DB083346
:10028800182BF4D100E00022104610BDB403002062
:1002980010B5094C00F0ECFB0023E1180A7E4AB1C6
:1002A800C969411AB1F5FA6F03DB0833182BF4D189
:1002B80000E00022104610BDB403002070B5FFF71F
:1002C800B1FFFFF7CFFF18B1002000F076FF04E080
:1002D800FFF7DEFF08B100F077FF114E002211464C
:1002E800706800F00BFD0F4C054628B100238022F2
:1002F800E370227163710DE002460146706800F0F8
:10030800EDFCFF23E37018B1A5232371657101E0AB
:10031800207160710448BDE87040017800F01EBB90
:10032800C0080020990300201C04002010B50446D2
:1003380000F096FB2388C01A80B23128F8D910BD86
:100348002DE9F0478A4AD36843F08073D360894B1C
:100358001A6842F001021A6000225A6003F1C04391
:1003680003F5FA335C695A6944F0200422F020024C
:100378005A61457A017B491BC9B2056841726D789B
:1003880025B12944FF29A8BFFF21CDB2C17B69430C
:10039800C1F3072972B671B6DFF8DCE175490025AB
:1003A80004264D60F04675467146B4464768002FEE
:1003B80040F3D78090F808A0C77ACAEB07070772FE
:1003C80090F809A0077BCAEB0707477290F80AA0C4
:1003D800477BCAEB070787720727DEF800A0BAF148
:1003E8008D0FFAD919F0800F5C612E6005D0D8F80E
:1003F80000A0BAF1600FFAD904E0D8F800A0BAF169
:10040800190FFAD94FEA4909013F5A615FFA89F988
:10041800E3D10F688D2FFCD919F0800F5C612E6035
:1004280003D00F68602FFCD902E00F68192FFCD9A0
:100438005A6107683F7837B190F808904F44FF2F0A
:10044800A8BFFF27FFB290F80E9007FB09F74FF0FF
:100458000709C7F30727D1F800A0BAF18D0FFAD919
:1004680017F0800F5C61C5F800C005D0D1F800A076
:10047800BAF1600FFAD904E0D1F800A0BAF1190F67
:10048800FAD97F00B9F101095A61FFB2E3D1D1F875
:100498000090B9F18D0FFAD93F065C612E6003D543
:1004A8000F68602FFCD902E00F68192FFCD95A6138
:1004B8000768BF7837B190F80A904F44FF2FA8BF5C
:1004C800FF27FFB290F8109007FB09F74FF00709D4
:1004D800C7F30727D1F800A0BAF18D0FFAD917F0A2
:1004E800800F5C61C5F800C005D0D1F800A0BAF152
:1004F800600FFAD904E0D1F800A0BAF1190FFAD9BF
:100508007F00B9F101095A61FFB2E3D1D1F8009037
:10051800B9F18D0FFAD93F065C612E6003D50F68DB
:10052800602FFCD902E00F68192FFCD95A610768BF
:1005380090F81190B9444768C0F80090013F4760AF
:1005480099F8017037B190F809904F44FF2FA8BF70
:10055800FF27FFB290F80F9007FB09F9C9F30729A5
:1005680024E762B661B6034B5868BDE8F08700BF60
:10057800F0ED00E0001000E0041000E030B5174B8B
:100588004FF480751A78013202F0070212F0010F59
:100598001A700CBF00238023910744BF43F0400327
:1005A800DBB2520748BF43F02003103300F10A01C1
:1005B800DAB20D300B791BB195FBF3F30133DBB2E3
:1005C80003FB02F401F8013F241201F8034C0BB1BC
:1005D800013B0B708842EDD130BD00BF6C03002099
:1005E80010B586B002921A780446807C8DF81220E5
:1005F8005A789B78012801918DF813208DF81430D2
:1006080003D101A8FFF7BAFF0CE000238DF81130E1
:100618008DF810308DF80F308DF80E308DF80D30C4
:100628008DF80C30002304F120008DF81530FFF709
:100638007DFE01A8FFF784FE00F012FA208406B0C0
:1006480010BD10B586B002921A780446807C8DF8E9
:1006580012205A789B78012801918DF813208DF883
:10066800143003D101A8FFF789FF0CE000238DF8AF
:1006780011308DF810308DF80F308DF80E308DF860
:100688000D308DF80C30032304F120008DF815305F
:10069800FFF74CFE01A8FFF753FE00F0E1F92084B4
:1006A80006B010BD08B500F0EBF9074B00221A7030
:1006B8005A804FF6FF7203209A8000F0DBFABDE8FB
:1006C8000840024800F004B81404002098030020F1
:1006D800704738B504460D4600F0E6FF94F900105F
:1006E80000F0BEFB00F0E0FF036829469B689847CE
:1006F80000F0DAFF002100F0B6FB00F0D5FF012280
:1007080094F9001000F0A3FB0128F6D100F0CCFF0B
:1007180003685B699847C0B238BD38B504460D46D2
:1007280000F0C2FF94F9001000F09AFB00F0BCFF43
:10073800036829469B68984700F0B6FF002100F03F
:1007480092FB00F0B1FF022294F9001000F07FFB49
:100758000228F6D100F0A8FF03685B6998470446B1
:1007680000F0A2FF03685B69984744EA002080B262
:1007780038BD08B50021FFF7D0FFC0F30B0008BD56
:1007880070B5064614460D4600F08EFF96F9001027
:1007980000F066FB00F088FF036829469B689847CD
:1007A80000F082FF036821469B68984700F07CFFB1
:1007B800BDE8704000F05BBBF8B505460F4616462D
:1007C800412421463A462846FFF7DAFF611C0234E5
:1007D8003246C9B22846E4B2FFF7D2FF592CF0D10D
:1007E800F8BD38B504460D4600F05EFF00F020FB6A
:1007F8006322802120462570FFF7C2FF012000F008
:10080800CDFA00225E212046FFF7BAFF5D2120467F
:10081800FFF75FFF242851D1204606220C21FFF75D
:10082800CBFF204601222B21FFF7AAFF20460122F9
:100838002C21FFF7A5FF20460E222D21FFF7A0FF50
:10084800204600222E21FFF79BFF204601222F2160
:10085800FFF796FF204605223021FFF791FF20463B
:1008680001223121FFF78CFF204600223221FFF7B9
:1008780087FF204600223321FFF782FF204600220F
:100888003421FFF77DFF204600223521FFF778FF4E
:10089800204600225B21FFF773FF204610225C21CF
:1008A800FFF76EFF204620225D21FFF769FF2046F3
:1008B8008F225E21FFF764FF012038BD002038BD7C
:1008C80000F0DEB8002370B503704370837092B1F6
:1008D800054601F10B040E3114F8016F3EB1E378BF
:1008E8002BB1013306FB033353431B0C2B708C4293
:1008F80005F10105F0D170BDF8B514461E1E0F466E
:100908000546D8BF16460368D8BF00249B6804EB89
:1009180044049847391969606E612846F8BD00009B
:1009280070B50C4C064623685A1C8B42226010DBBB
:1009380000F09EF82268084D4FF47A7353432A68F2
:10094800801AB3FBF0F373800023236000F090F863
:10095800286070BD280400202C0400202DE9F74FE2
:1009680005460F46194C6B6833B100F079F82368D7
:10097800C01A6B689842F6D300F072F8134B002641
:100988001860134B1C68D4B16B88D4F804A0632B8F
:10099800D4F814B0236894F81280214698BFA6743E
:1009A8003A4601A8D3F80490FFF78CFF204601AB24
:1009B8005A465146C84784F81280A468E3E71921CB
:1009C8002846FFF7ADFF03B0BDE8F08F30040020E4
:1009D8003404002008B500F053F8044BFF221A70C5
:1009E80000225A8040F6C4125A6008BD1C04002038
:1009F80000F046B800F044B800F042B800F040B843
:100A080000F03EB800F03CB800F03AB808B500F085
:100A180037F800F035F8014B186008BD380400209D
:100A280008B5024B1B681B6B019308BDD001060873
:100A380008B5024B1B68DB69019308BDB8010608BD
:100A480008B5024B1B689B6E019308BDB8010608E8
:100A580008B5024B1B685B68019308BD9C0106083A
:100A680008B5024B1B681B69019308BD9C01060869
:100A780008B5024B1B685B69019308BD9C01060819
:100A880008B5024B1B681B68019308BDB001060836
:100A980008B5024B1B689B68019308BDB0010608A6
:100AA80008B5024B1B68DB6C019308BDAC01060856
:100AB80008B5024B1B685B6D019308BDAC010608C5
:100AC80008B5024B1B689B6D019308BDAC01060875
:100AD80008B5024B1B68DB6D019308BDAC01060825
:100AE80008B5024B1B681B6E019308BDAC010608D4
:100AF80008B5024B1B685B6E019308BDAC01060884
:100B080008B5024B1B689B6E019308BDAC01060833
:100B180008B5024B1B68DB6E019308BDAC010608E3
:100B280008B5024B1B681B6F019308BDAC01060892
:100B380008B5024B1B685B6F019308BDAC01060842
:100B480008B5034B1B68D3F88030019308BD00003B
:100B5800AC01060808B5024B1B68DB69019308BDA8
:100B6800B401060808B5024B1B681B6A019308BD4F
:100B7800B401060808B5024B1B689B69019308BDC0
:100B8800C401060808B5024B1B685B6A019308BDDF
:100B9800C401060808B5024B1B689B6A019308BD8F
:100BA800C401060808B5024B1B68DB6A019308BD3F
:100BB800C401060808B5024B1B681B6B019308BDEE
:100BC800C401060808B5024B1B685B6B019308BD9E
:100BD800C401060808B5024B1B689B6B019308BD4E
:100BE800C401060808B5024B1B681B6C019308BDBD
:100BF800C401060808B5024B1B681B68019308BDB1
:100C0800D801060808B5024B1B685B68019308BD4C
:100C1800D801060808B5024B1B681B69019308BD7B
:100C2800D801060808B5024B1B685B69019308BD2B
:100C3800D801060808B5024B1B689B69019308BDDB
:100C4800D801060808B5024B1B68DB69019308BD8B
:100C5800D801060808B5024B1B681B6A019308BD3A
:100C6800D801060808B5024B1B689B6C019308BDA8
:100C7800C001060808B5024B1B685B68019308BDF4
:100C8800A401060808B5024B1B685B69019308BDFF
:100C9800A401060808B5034B1B68D3F890300193EC
:100CA80008BD0000A401060808B5034B1B68D3F86B
:100CB8009C30019308BD0000A401060808B5024B4A
:100CC8001B68DB6B019308BDCC01060808B5024B15
:100CD8001B685B68019308BDC801060808B5024B8C
:100CE8001B689B68019308BDC801060808B5024B3C
:100CF8001B68DB68019308BDC801060808B5024BEC
:100D08001B681B69019308BDC801060808B5024B9A
:100D18001B685B69019308BDC801060808B5024B4A
:100D28001B689B69019308BDC801060808B5024BFA
:100D38001B68DB69019308BDC801060808B5024BAA
:100D48001B681B6A019308BDC801060808B5024B59
:100D58001B681B6B019308BDC801060808B5024B48
:100D68001B685B6B019308BDC801060808B5024BF8
:100D78001B681B68019308BDA001060808B5024B53
:100D88001B685B68019308BDA001060808B5024B03
:100D98001B685B6A019308BDA00106080021FFF7E4
:100DA80071BF10B58368044613B103220146984702
:100DB800204610BD7047F8B5064615460C468F18F4
:100DC800BC4206D0336814F8011B9B68304698472C
:100DD800F6E72846F8BD0022007CFFF781BE002117
:100DE800007CFFF785BE0021007CFFF789BE00214B
:100DF800007CFFF78DBE0021007CFFF791BE10B587
:100E08000446FFF746F9204610BD000010B5044619
:100E180008464FF47A73A360044B00212074616084
:100E28002360FFF78DFE204610BD00BFE81A0A08B0
:100E380000231A461946007CFFF732BE13B500247A
:100E4800007C0094FFF734FEC0B202B010BD01234D
:100E5800D2B2C9B2FFF7F2BF0022007CFFF730BE62
:100E6800C9B2FFF7F9BF0022007CFFF731BE0121AC
:100E7800FFF7F9BF0021007CFFF75ABE704710B595
:100E88000446FFF706F9204610BDF8B50F4600F1F5
:100E98000806051D002416F8011D0A22384600F030
:100EA8001CF9AE42044407D0002CF4D02E21384659
:100EB80000F0DAF80444EEE72046F8BD10B5044621
:100EC800044B112240F8043B002100F0AEFD2046FF
:100ED80010BD00BF101B0A080346074A10B543F8A7
:100EE800042B01F1100251F8044B914243F8044BD2
:100EF800F9D10A781A7010BD101B0A08024A41601D
:100F08000260042202757047101B0A0810B59DF88C
:100F1800084044EA032343EA024242EA0161042307
:100F28004160037510BD000037B5044D05609DF89C
:100F380018500095FFF7EAFF03B030BD101B0A08F0
:100F4800014A024B1A607047D71B0A083C0400206C
:100F580000231A464068FFF7B9BE00220221406804
:100F6800FFF7C4BE002211464068FFF7B7BE002253
:100F780011464068FFF7C2BE00231A46194640686A
:100F8800FFF7C4BE00231A4619464068FFF7C6BEDD
:100F9800002281F001014068FFF7C8BE00224068C6
:100FA800FFF7D4BE002211464068FFF7D7BE0022E3
:100FB80011464068FFF7C2BE70B516468EB00446AB
:100FC80008A8FFF77BFF1122002103A800F02DFDE0
:100FD800304600F05BFD00250A4B009581B25B6846
:100FE80003AA3046FFF73EFE20B129462046FFF708
:100FF80085FF03E003A92046FFF76EFF20460EB0E9
:1010080070BD00BFC0080020024B034A1A600022CE
:101018005A60704740040020081C0A08F8B50646C4
:101028000D468F180024BD420CD0336815F8011BFB
:101038009B6830469847002801DB0444F3E7002CFE
:1010480008BF04462046F8BD70B505460C4608465C
:1010580049B100F01BFD2B68024621462846BDE831
:101068007040DB68184770BD03689B68184738B53F
:101078000D210546FFF7F8FF0A2104462846FFF729
:10108800F3FF204438BD012A98BF0A2230B50B4629
:101098008BB000218DF824100DF12304B3FBF2F579
:1010A80005FB1233DBB2092B94BF30333733DBB285
:1010B800214604F801392B46002DEFD1FFF7C4FF74
:1010C8000BB030BD10B422B90368C9B29B6810BC1C
:1010D8001847D2B210BCFFF7D6BFFFF7F3BF0CB466
:1010E8002DE9F04387B000AF07F1380454F8049BAA
:1010F80005460E4623464A461421381D3C60FFF734
:1011080045FE132805D8391D2846FFF79DFF0446DC
:1011180013E000F1080323F00703E846ADEB030DE5
:10112800411C23464A4668463C60FFF72FFE694645
:101138002846FFF789FF0446C5461EB12846FFF733
:1011480096FF044420461C37BD46BDE8F04302B074
:10115800704710B50446FFF724FE204610BD000076
:10116800034800238360034A034900F0F7BA00BF2D
:1011780048040020680300205B110A08704710B576
:101188000446FEF786FF204610BD000070B50446F1
:101198000E46074B0025036040F80C5FFFF740FC44
:1011A80030462671FFF7D6FCA560204670BD00BF0B
:1011B8003C1C0A080079FFF7D5BCFFF739BC01468B
:1011C80000228C20FFF73CBC0020FFF7F8BF00008E
:1011D8004FF6FF72034B0020187058809A80FFF773
:1011E80049BD00BF58040020024B1A68024B1A6020
:1011F800704700BF0003002060040020704741745E
:101208007047007CFFF7EEBC007CFFF7C3BC007C96
:10121800FFF7D0BC007CFFF7C5BC007CFFF7D2BC51
:1012280010B50446FEF735FF204610BD70B5457C65
:1012380004460E4625B9007CFFF7D4FC002805DDDE
:101248003146207CBDE87040FFF79CBC284670BD45
:1012580010B5044608461146002262604FF47A72BF
:10126800A260054A20742260012262741A46FFF7C0
:1012780081FC204610BD00BF781C0A08007CFFF7DF
:10128800A9BC000038B50C4D296811F0010411D132
:101298002846FEF700FF68B1084A2146084B09486E
:1012A800FFF7D6FF2846FEF7FBFE074A0749054821
:1012B80000F054FA034838BDFC0400200005002063
:1012C80078040020640400206803002005120A083E
:1012D8004174704770470021007CFFF7ABBC0121C7
:1012E800007CFFF7A7BC007CFFF79CBC007CFFF7E5
:1012F80091BC38B50446007C0D46FFF793FC0028E6
:1013080001DC607C20B12946207CFFF79BFC012092
:1013180038BD007CFFF79EBC10B50446FEF7B9FE49
:10132800204610BD10B50446002363604FF47A735D
:10133800A360054B0846236001232174637411469A
:10134800FFF758FC204610BDA81C0A080022007CA4
:10135800FFF758BC10B504461422002100F065FBC5
:10136800054B20466360054BE36040F2011323817F
:101378008123238210BD00BF0906002088050020B4
:1013880030B50E4D87B001A8FFF7E4FF296811F0CA
:10139800010410D12846FEF77EFE60B101AA21465D
:1013A8000748FFF7BFFF2846FEF77AFE054A0649B9
:1013B800034800F0D3F9024807B030BD8405002087
:1013C8000C07002068030020DD120A0810B5044647
:1013D8001422002100F029FB054B20466360054BD1
:1013E800E36040F2011323818123238210BD00BFF3
:1013F800BC0700202407002010B50E4C86B001A8B9
:10140800FFF7E4FF2368DB0710D42046FEF743FE0E
:1014180060B101AA01210848FFF784FF2046FEF7C2
:101428003FFE064A0649044800F098F9024806B00B
:1014380010BD00BF20070020A80700206803002077
:10144800DD120A08002211464068FFF757BCF0B5C4
:10145800164689B011220F460446002103A800F061
:10146800E4FA304600F012FB0025009581B27B6853
:1014780003AA3046FFF7F6FB20B129462046FFF7BE
:101488003DFD03E003A92046FFF726FD204609B0ED
:10149800F0BD002211464068FFF750BC00221146FB
:1014A8004068FFF75BBC00224068FFF74FBC002292
:1014B80081F001014068FFF739BC00231A4619463C
:1014C8004068FFF72BBC00231A4619464068FFF70F
:1014D8001DBC002211464068FFF700BC0022022113
:1014E8004068FFF703BC00231A464068FFF7EEBBCD
:1014F800024B04225A60024A1A607047C008002052
:10150800D81C0A0808B5144B33B1FFF739FF036834
:101518001B699847002816DC104B33B1FFF7B2FE61
:1015280003681B699847002810DC0D4B0BB1AFF31B
:1015380000800C4B7BB1FFF75FFF03681B6998477E
:10154800002806DC08BDAFF30080E5E7AFF30080B4
:10155800EBE7AFF3008008BD0000000000000000CA
:10156800000000000000000008B5FFF7CBFFFFF700
:101578007FFA014B186008BDD00800200248034AD2
:101588000349121A00F046BA0040024004400240E3
:10159800D01D0A0807B5002300931A466FF077019B
:1015A800FFF782FB03B05DF804FB000007B5438832
:1015B8000A2B08D0502B09D1094B1B683BB103B04B
:1015C8005DF804EB1847FFF7E5FF06E000230093FA
:1015D8001A466FF07701FFF767FB03B05DF804FB6D
:1015E800C808002038B5104C104D2368AB42104B8A
:1015F8000CBF012200221A7002D0FFF7BFFF25603E
:10160800FFF726FA044600F019FA0A4B13B12046F0
:10161800AFF3008000210748FFF750FBBDE83840D2
:1016280000210548FFF736BB004002401E1C279AE0
:10163800CC08002000000000B5150A0810B50446C3
:101648000F48FFF7B7FD28B1A4F10D03022B01D80D
:10165800002010BD00F028F8FFF70CFC08B1012CA1
:10166800F6D9FFF70FFEFFF709FE18B1A4F1120330
:10167800012BEDD9172C8CBF0020012010BD00BF15
:1016880004090020172838B504460D460AD8FF2952
:1016980008D0FFF7D3FF28B129462046BDE83840D7
:1016A800FFF7F6B938BD000038B50B4D296811F0C1
:1016B80001040FD12846FEF7EEFC58B12146074831
:1016C800FFF7A4FB2846FEF7EBFC054A054903484B
:1016D80000F044F8014838BDD4080020D80800209C
:1016E80068030020BD0D0A0813B5084C00231A46EC
:1016F800194600932046FFF717FC2046044A05497F
:1017080002B0BDE8104000F029B800BFEC08002086
:1017180068030020850E0A0870B50C4C0C4E0D4D60
:1017280000212046FFF732FD20460B4C3246294661
:1017380000F014F801212046FFF728FD324629461B
:101748002046BDE8704000F009B800BF0409002039
:101758006803002085110A08140900200B46014679
:10176800184600F049B90000244B1A68D0075CBF3E
:1017780001221A60224B1A68D1075CBF01221A6045
:10178800204B1A68D2075CBF01221A601E4B1A68E8
:10179800D0075CBF01221A601C4B1A68D1075CBFD6
:1017A80001221A601A4B1A68D2075CBF01221A601C
:1017B800184B1A68D0075CBF01221A60164B1A68CA
:1017C800D1075CBF01221A60144B1A68D2075CBFAC
:1017D80001221A60124B1A68D0075CBF01221A60F6
:1017E800104B1A68D1075CBF01221A600E4B1A68A9
:1017F800D2075CBF01221A60704700BF5009002061
:101808004C09002048090020440900204009002014
:101818003C09002038090020340900203009002044
:101828002C0900202809002024090020184B1A68D8
:10183800D1075CBF01221A60164B1A68D2075CBF39
:1018480001221A60144B1A68D0075CBF01221A6083
:10185800124B1A68D1075CBF01221A60104B1A6834
:10186800D2075CBF01221A600E4B1A68D0075CBF12
:1018780001221A600C4B1A68D1075CBF01221A605A
:101888000A4B1A68D2075CBF01221A60704700BF72
:10189800700900206C0900206809002064090020F4
:1018A800600900205C090020580900205409002024
:1018B800184B1A68D1075CBF01221A60164B1A68C8
:1018C800D2075CBF01221A60144B1A68D0075CBFAC
:1018D80001221A60124B1A68D1075CBF01221A60F4
:1018E800104B1A68D2075CBF01221A600E4B1A68A7
:1018F800D0075CBF01221A600C4B1A68D1075CBF85
:1019080001221A600A4B1A68D2075CBF01221A60CA
:10191800704700BF900900208C090020880900202A
:1019280084090020800900207C0900207809002013
:1019380074090020244B1A68D0075CBF01221A6082
:10194800224B1A68D1075CBF01221A60204B1A6823
:10195800D2075CBF01221A601E4B1A68D0075CBF11
:1019680001221A601C4B1A68D1075CBF01221A6059
:101978001A4B1A68D2075CBF01221A60184B1A6802
:10198800D0075CBF01221A60164B1A68D1075CBFEA
:1019980001221A60144B1A68D2075CBF01221A6030
:1019A800124B1A68D0075CBF01221A60104B1A68E4
:1019B800D1075CBF01221A600E4B1A68D2075CBFC0
:1019C80001221A60704700BFC0090020BC0900202E
:1019D800B8090020B4090020B0090020AC09002093
:1019E800A8090020A4090020A00900209C090020C3
:1019F800980900209409002010B5054C13462CB115
:101A08000A4601460220AFF3008010BD204610BDF3
:101A18000000000010B5431E0A44914204D011F89A
:101A2800014B03F8014FF8E710BD03460244934207
:101A380002D003F8011BFAE77047000038B5124BD3
:101A480005461C68A36BD3B91820FFF78FF943F23A
:101A58000E33A06303804AF6CD33438041F234232A
:101A680083804EF26D63C3804DF6EC6303810523DA
:101A780043810B23838101220023C0E90423A36B44
:101A880000221D615A6138BD64030020034613F823
:101A9800012B002AFBD1181A013870471D000A08CB
:101AA8005D000A0889000A088D000A080000000085
:101AB8000000000000000000E9050A084B060A08BB
:101AC800DD000A08AF000A0848656C6C6F2C2077A7
:101AD8006F726C642100000000000000000000002C
:101AE800BD0D0A08070E0A08DF0D0A08BF0D0A080F
:101AF800E70D0A08EF0D0A08F70D0A08FF0D0A0896
:101B08000000000000000000930E0A08850E0A0875
:101B1800870E0A0866006C6E00666E00636F646567
:101B28000064657461696C000D0A002530313075F8
:101B380020005D20002564002C200028293A200080
:101B4800205B00636F6465203D20002569006465A3
:101B58007461696C73203D2000626175640053658F
:101B68007269616C0055534253657269616C31004A
:101B78007479706500706172616D00636D640069ED
:101B88006400686E64007374726D0066696C74003A
:101B98006C766C0061646448616E646C6572007296
:101BA800656D6F766548616E646C657200656E750B
:101BB8006D48616E646C657273004A534F4E53747E
:101BC8007265616D4C6F6748616E646C6572006127
:101BD8007070006E6F6E6500747261636500696E87
:101BE800666F007761726E006572726F7200706165
:101BF8006E696300616C6C0000000000000000006A
:101C0800590F0A08630F0A086D0F0A08770F0A08A8
:101C1800810F0A088D0F0A08990F0A08A50F0A08EC
:101C2800AD0F0A08B70F0A08C10F0A080000000024
:101C38000000000085110A0887110A085A00252BA0
:101C48003033643A253032750025592D256D2D2500
:101C5800645425483A254D3A2553257A0061736323
:101C680074696D65000000000000000000000000BD
:101C780005120A0829120A0835120A0825100A0846
:101C880011120A081D120A0817120A0823120A0854
:101C980007120A080B120A080000000000000000E2
:101CA800DD120A0821130A08FB120A0825100A087F
:101CB800F5120A08DF120A08E7120A081B130A08B5
:101CC800EF120A08D9120A080000000000000000FC
:101CD800EF140A08E5140A08DB140A084D140A0868
:101CE800CF140A08C3140A08B7140A08AF140A085C
:101CF800A5140A089B140A0857140A0800000000D3
:101D080000000000000000000000000000000000CB
:101D180000000000000000000000000000000000BB
:101D280000000000000000000000000000000000AB
:101D3800000000000000000000000000000000009B
:101D4800000000000000000000000000000000008B
:101D58000000000000000000000000004300000038
:101D6800AD060A08C9080A08DD090A08F9090A08B7
:101D7800FD090A08010A0A08050A0A08090A0A08E0
:101D88000D0A0A08110A0A08150A0A08490F0A085A
:101D980011100A0869110A08D9110A08F1110A086C
:101DA800F9140A08F1160A0821170A0871170A080F
:101DB80035180A08B9180A083D190A080000000071
:081DC800000000000000000013
:041DD000000000000F
:101DD400651C0A0800000000041D0A08241D0A08E6
:101DE400441D0A080000000000000000000000007C
:101DF40000000000641D0A0800000000000000004C
:101E040000000000000000000000000000000000CE
:101E140000000000000000000000000000000000BE
:101E240000000000000000000000000000000000AE
:081E340000000000040300207F
:101E3C00FFFFFFFF00000102030405060708090A63
:101E4C000B0C0D0E0F101112131415161718191A5E
:081E5C001B1C1D1E1F202800A5
:041E64007856341266
:04000005080A0018CD
:00000001FF
